2018-03-04 16:56:16.493(10116)[INFO][logger] /////////////////////////////////////////////////////////////////////////////////////////////
2018-03-04 16:56:16.494(10116)[INFO][logger] request received, Addr=0x00388aC2b00A280A2Fa46dEa7dd2E313e825685d,Amount=136
2018-03-04 16:56:16.746(10116)[INFO][logger] num transactions so far: 103
2018-03-04 16:56:17.045(10116)[INFO][logger] Balance before send: 99999999999999999998 
------------------------
2018-03-04 16:56:17.353(10116)[INFO][logger] Raw of Transaction: 
{
	"from": "0xa210Fb4Dc50dA7078015C10C3b2ec424Ca80A335",
	"nonce": "0x67",
	"gasPrice": "0x1dcd65000",
	"gasLimit": "0x2dc6c0",
	"to": "0xFF603F43946A3A28DF5E6A73172555D8C8b02386",
	"value": "0x0",
	"data": "0xa9059cbb00000000000000000000000000388ac2b00a280a2fa46dea7dd2e313e825685d0000000000000000000000000000000000000000000000000000000000000088",
	"chainId": 1
}
------------------------
2018-03-04 16:56:17.369(10116)[INFO][logger] Attempting to send signed tx:  f8aa678501dcd65000832dc6c094ff603f43946a3a28df5e6a73172555d8c8b0238680b844a9059cbb00000000000000000000000000388ac2b00a280a2fa46dea7dd2e313e825685d000000000000000000000000000000000000000000000000000000000000008826a02cc3b3c7a15b9c2946014062904cd7b276f78dcb6a0265229f32f91d7a43b313a055a2e9237995f38f9591a79837e91762b1321aedd3acfc0cf79e4b74a7126382
------------------------
2018-03-04 16:56:34.875(10116)[INFO][logger] /////////////////////////////////////////////////////////////////////////////////////////////
2018-03-04 16:56:34.875(10116)[INFO][logger] request received, Addr=0x00388aC2b00A280A2Fa46dEa7dd2E313e825685d,Amount=1363
2018-03-04 16:56:35.139(10116)[INFO][logger] num transactions so far: 103
2018-03-04 16:56:35.884(10116)[INFO][logger] Balance before send: 99999999999999999998 
------------------------
2018-03-04 16:56:36.124(10116)[INFO][logger] Raw of Transaction: 
{
	"from": "0xa210Fb4Dc50dA7078015C10C3b2ec424Ca80A335",
	"nonce": "0x67",
	"gasPrice": "0x1dcd65000",
	"gasLimit": "0x2dc6c0",
	"to": "0xFF603F43946A3A28DF5E6A73172555D8C8b02386",
	"value": "0x0",
	"data": "0xa9059cbb00000000000000000000000000388ac2b00a280a2fa46dea7dd2e313e825685d0000000000000000000000000000000000000000000000000000000000000553",
	"chainId": 1
}
------------------------
2018-03-04 16:56:36.134(10116)[INFO][logger] Attempting to send signed tx:  f8aa678501dcd65000832dc6c094ff603f43946a3a28df5e6a73172555d8c8b0238680b844a9059cbb00000000000000000000000000388ac2b00a280a2fa46dea7dd2e313e825685d000000000000000000000000000000000000000000000000000000000000055325a0f821f915063638e0a65486f2ead8febdc8965920e194c7a5b19c30e337605400a044e0604503439befe5f06bed0d954fb00e566bbe2452c30731f2227e7abe34df
------------------------
